{
  "_format": "hh-sol-artifact-1",
  "contractName": "LandRegistry",
  "sourceName": "contracts/LandRegistry.sol",
  "abi": [
    {
      "anonymous": false,
      "inputs": [
        {
          "indexed": false,
          "internalType": "uint256",
          "name": "landID",
          "type": "uint256"
        },
        {
          "indexed": false,
          "internalType": "address",
          "name": "admin",
          "type": "address"
        }
      ],
      "name": "LandDisputed",
      "type": "event"
    },
    {
      "anonymous": false,
      "inputs": [
        {
          "indexed": false,
          "internalType": "uint256",
          "name": "landID",
          "type": "uint256"
        },
        {
          "indexed": false,
          "internalType": "enum LandRegistry.LandStatus",
          "name": "status",
          "type": "uint8"
        }
      ],
      "name": "LandStatusChanged",
      "type": "event"
    },
    {
      "anonymous": false,
      "inputs": [
        {
          "indexed": false,
          "internalType": "uint256",
          "name": "landID",
          "type": "uint256"
        },
        {
          "indexed": false,
          "internalType": "address",
          "name": "admin",
          "type": "address"
        }
      ],
      "name": "LandVerified",
      "type": "event"
    },
    {
      "anonymous": false,
      "inputs": [
        {
          "indexed": false,
          "internalType": "uint256",
          "name": "landID",
          "type": "uint256"
        },
        {
          "indexed": false,
          "internalType": "address",
          "name": "owner",
          "type": "address"
        }
      ],
      "name": "RegisteredLand",
      "type": "event"
    },
    {
      "anonymous": false,
      "inputs": [
        {
          "indexed": false,
          "internalType": "uint256",
          "name": "landID",
          "type": "uint256"
        },
        {
          "indexed": false,
          "internalType": "address",
          "name": "from",
          "type": "address"
        },
        {
          "indexed": false,
          "internalType": "address",
          "name": "to",
          "type": "address"
        }
      ],
      "name": "TransferredOwnership",
      "type": "event"
    },
    {
      "inputs": [],
      "name": "getAllLands",
      "outputs": [
        {
          "components": [
            {
              "internalType": "uint256",
              "name": "landID",
              "type": "uint256"
            },
            {
              "internalType": "address",
              "name": "owner",
              "type": "address"
            },
            {
              "internalType": "uint256",
              "name": "area",
              "type": "uint256"
            },
            {
              "internalType": "string",
              "name": "location",
              "type": "string"
            },
            {
              "internalType": "string",
              "name": "plotNumber",
              "type": "string"
            },
            {
              "internalType": "string",
              "name": "ipfsHash",
              "type": "string"
            },
            {
              "internalType": "enum LandRegistry.LandStatus",
              "name": "status",
              "type": "uint8"
            },
            {
              "internalType": "enum LandRegistry.saleStatus",
              "name": "salestatus",
              "type": "uint8"
            },
            {
              "internalType": "uint256",
              "name": "price",
              "type": "uint256"
            }
          ],
          "internalType": "struct LandRegistry.LandParcel[]",
          "name": "",
          "type": "tuple[]"
        }
      ],
      "stateMutability": "view",
      "type": "function"
    },
    {
      "inputs": [],
      "name": "getDisputedLands",
      "outputs": [
        {
          "components": [
            {
              "internalType": "uint256",
              "name": "landID",
              "type": "uint256"
            },
            {
              "internalType": "address",
              "name": "owner",
              "type": "address"
            },
            {
              "internalType": "uint256",
              "name": "area",
              "type": "uint256"
            },
            {
              "internalType": "string",
              "name": "location",
              "type": "string"
            },
            {
              "internalType": "string",
              "name": "plotNumber",
              "type": "string"
            },
            {
              "internalType": "string",
              "name": "ipfsHash",
              "type": "string"
            },
            {
              "internalType": "enum LandRegistry.LandStatus",
              "name": "status",
              "type": "uint8"
            },
            {
              "internalType": "enum LandRegistry.saleStatus",
              "name": "salestatus",
              "type": "uint8"
            },
            {
              "internalType": "uint256",
              "name": "price",
              "type": "uint256"
            }
          ],
          "internalType": "struct LandRegistry.LandParcel[]",
          "name": "",
          "type": "tuple[]"
        }
      ],
      "stateMutability": "view",
      "type": "function"
    },
    {
      "inputs": [
        {
          "internalType": "uint256",
          "name": "_landID",
          "type": "uint256"
        }
      ],
      "name": "getLandDetails",
      "outputs": [
        {
          "internalType": "uint256",
          "name": "",
          "type": "uint256"
        },
        {
          "internalType": "address",
          "name": "",
          "type": "address"
        },
        {
          "internalType": "uint256",
          "name": "",
          "type": "uint256"
        },
        {
          "internalType": "string",
          "name": "",
          "type": "string"
        },
        {
          "internalType": "string",
          "name": "",
          "type": "string"
        },
        {
          "internalType": "string",
          "name": "",
          "type": "string"
        },
        {
          "internalType": "enum LandRegistry.LandStatus",
          "name": "",
          "type": "uint8"
        },
        {
          "internalType": "enum LandRegistry.saleStatus",
          "name": "",
          "type": "uint8"
        },
        {
          "internalType": "uint256",
          "name": "",
          "type": "uint256"
        }
      ],
      "stateMutability": "view",
      "type": "function"
    },
    {
      "inputs": [
        {
          "internalType": "address",
          "name": "_owner",
          "type": "address"
        }
      ],
      "name": "getMyLands",
      "outputs": [
        {
          "components": [
            {
              "internalType": "uint256",
              "name": "landID",
              "type": "uint256"
            },
            {
              "internalType": "address",
              "name": "owner",
              "type": "address"
            },
            {
              "internalType": "uint256",
              "name": "area",
              "type": "uint256"
            },
            {
              "internalType": "string",
              "name": "location",
              "type": "string"
            },
            {
              "internalType": "string",
              "name": "plotNumber",
              "type": "string"
            },
            {
              "internalType": "string",
              "name": "ipfsHash",
              "type": "string"
            },
            {
              "internalType": "enum LandRegistry.LandStatus",
              "name": "status",
              "type": "uint8"
            },
            {
              "internalType": "enum LandRegistry.saleStatus",
              "name": "salestatus",
              "type": "uint8"
            },
            {
              "internalType": "uint256",
              "name": "price",
              "type": "uint256"
            }
          ],
          "internalType": "struct LandRegistry.LandParcel[]",
          "name": "",
          "type": "tuple[]"
        }
      ],
      "stateMutability": "view",
      "type": "function"
    },
    {
      "inputs": [
        {
          "internalType": "uint256",
          "name": "_landID",
          "type": "uint256"
        }
      ],
      "name": "getOwnershipHistory",
      "outputs": [
        {
          "internalType": "address[]",
          "name": "",
          "type": "address[]"
        }
      ],
      "stateMutability": "view",
      "type": "function"
    },
    {
      "inputs": [
        {
          "internalType": "uint256",
          "name": "_landID",
          "type": "uint256"
        }
      ],
      "name": "markAsDisputed",
      "outputs": [],
      "stateMutability": "nonpayable",
      "type": "function"
    },
    {
      "inputs": [
        {
          "internalType": "uint256",
          "name": "_landID",
          "type": "uint256"
        }
      ],
      "name": "purchaseLand",
      "outputs": [],
      "stateMutability": "payable",
      "type": "function"
    },
    {
      "inputs": [
        {
          "internalType": "uint256",
          "name": "_area",
          "type": "uint256"
        },
        {
          "internalType": "string",
          "name": "_location",
          "type": "string"
        },
        {
          "internalType": "string",
          "name": "_plotNumber",
          "type": "string"
        },
        {
          "internalType": "string",
          "name": "_ipfsHash",
          "type": "string"
        },
        {
          "internalType": "uint256",
          "name": "_price",
          "type": "uint256"
        }
      ],
      "name": "registerLand",
      "outputs": [],
      "stateMutability": "nonpayable",
      "type": "function"
    },
    {
      "inputs": [
        {
          "internalType": "uint256",
          "name": "_landID",
          "type": "uint256"
        }
      ],
      "name": "verifyLand",
      "outputs": [],
      "stateMutability": "nonpayable",
      "type": "function"
    },
    {
      "inputs": [
        {
          "internalType": "uint256",
          "name": "_landID",
          "type": "uint256"
        }
      ],
      "name": "verifyLandAndRemoveDuplicates",
      "outputs": [],
      "stateMutability": "nonpayable",
      "type": "function"
    }
  ],
  "bytecode": "0x6080604052348015600f57600080fd5b5061357a8061001f6000396000f3fe6080604052600436106100915760003560e01c8063cca878f611610059578063cca878f61461016c578063e9db0fcc14610197578063f1dbaccb146101c0578063f9c43bdf146101fd578063fe0cb7dc1461022657610091565b80630db026f5146100965780635b9efade146100bf5780638009d5d7146100e8578063a6a6ab6c14610104578063b7b6e54314610141575b600080fd5b3480156100a257600080fd5b506100bd60048036038101906100b891906123fe565b61026b565b005b3480156100cb57600080fd5b506100e660048036038101906100e191906123fe565b610620565b005b61010260048036038101906100fd91906123fe565b61077b565b005b34801561011057600080fd5b5061012b60048036038101906101269190612489565b610c04565b60405161013891906127b8565b60405180910390f35b34801561014d57600080fd5b50610156611079565b60405161016391906127b8565b60405180910390f35b34801561017857600080fd5b506101816113df565b60405161018e91906127b8565b60405180910390f35b3480156101a357600080fd5b506101be60048036038101906101b9919061290f565b61181c565b005b3480156101cc57600080fd5b506101e760048036038101906101e291906123fe565b611b68565b6040516101f49190612a8d565b60405180910390f35b34801561020957600080fd5b50610224600480360381019061021f91906123fe565b611cb0565b005b34801561023257600080fd5b5061024d600480360381019061024891906123fe565b611ee6565b60405161026299989796959493929190612b35565b60405180910390f35b80600073ffffffffffffffffffffffffffffffffffffffff166001600083815260200190815260200160002060010160009054906101000a900473ffffffffffffffffffffffffffffffffffffffff1673ffffffffffffffffffffffffffffffffffffffff1603610311576040517f08c379a000000000000000000000000000000000000000000000000000000000815260040161030890612c23565b60405180910390fd5b60018081111561032457610323612590565b5b6001600084815260200190815260200160002060060160019054906101000a900460ff16600181111561035a57610359612590565b5b14806103ac575060018081111561037457610373612590565b5b6001600084815260200190815260200160002060060160009054906101000a900460ff1660018111156103aa576103a9612590565b5b145b6103eb576040517f08c379a00000000000000000000000000000000000000000000000000000000081526004016103e290612cb5565b60405180910390fd5b6000600160008481526020019081526020016000209050600061040e60006122ad565b905060008260060160006101000a81548160ff0219169083600181111561043857610437612590565b5b02179055507f9ba6395e75fcc1b021b7237eb51d055ec9f8797bfeb15a99c61db5f599bf880284600060405161046f929190612cd5565b60405180910390a17ffb9625d8f3292b4f2c77920987a97b46155b934995873c85e64429df037b005b84336040516104a8929190612cfe565b60405180910390a160005b818110156106195784811415801561050c5750826004016040516104d79190612e2a565b6040518091039020600160008381526020019081526020016000206004016040516105029190612e2a565b6040518091039020145b80156105595750826003016040516105249190612e2a565b60405180910390206001600083815260200190815260200160002060030160405161054f9190612e2a565b6040518091039020145b1561060c57600160008281526020019081526020016000206000808201600090556001820160006101000a81549073ffffffffffffffffffffffffffffffffffffffff021916905560028201600090556003820160006105b991906122d1565b6004820160006105c991906122d1565b6005820160006105d991906122d1565b6006820160006101000a81549060ff02191690556006820160016101000a81549060ff0219169055600782016000905550505b80806001019150506104b3565b5050505050565b80600073ffffffffffffffffffffffffffffffffffffffff166001600083815260200190815260200160002060010160009054906101000a900473ffffffffffffffffffffffffffffffffffffffff1673ffffffffffffffffffffffffffffffffffffffff16036106c6576040517f08c379a00000000000000000000000000000000000000000000000000000000081526004016106bd90612c23565b60405180910390fd5b600180600084815260200190815260200160002060060160006101000a81548160ff021916908360018111156106ff576106fe612590565b5b02179055507f9ba6395e75fcc1b021b7237eb51d055ec9f8797bfeb15a99c61db5f599bf8802826001604051610736929190612cd5565b60405180910390a17f4481194e60c2f7ff02a9e434fff989467797c33422362717b7064cdf52eca129823360405161076f929190612cfe565b60405180910390a15050565b80600073ffffffffffffffffffffffffffffffffffffffff166001600083815260200190815260200160002060010160009054906101000a900473ffffffffffffffffffffffffffffffffffffffff1673ffffffffffffffffffffffffffffffffffffffff1603610821576040517f08c379a000000000000000000000000000000000000000000000000000000000815260040161081890612c23565b60405180910390fd5b60006001600084815260200190815260200160002090506000600181111561084c5761084b612590565b5b8160060160009054906101000a900460ff1660018111156108705761086f612590565b5b146108b0576040517f08c379a00000000000000000000000000000000000000000000000000000000081526004016108a790612e8d565b60405180910390fd5b6001808111156108c3576108c2612590565b5b8160060160019054906101000a900460ff1660018111156108e7576108e6612590565b5b14610927576040517f08c379a000000000000000000000000000000000000000000000000000000000815260040161091e90612ef9565b60405180910390fd5b8060010160009054906101000a900473ffffffffffffffffffffffffffffffffffffffff1673ffffffffffffffffffffffffffffffffffffffff163373ffffffffffffffffffffffffffffffffffffffff16036109b9576040517f08c379a00000000000000000000000000000000000000000000000000000000081526004016109b090612f65565b60405180910390fd5b806007015434146109ff576040517f08c379a00000000000000000000000000000000000000000000000000000000081526004016109f690612fd1565b60405180910390fd5b60008160010160009054906101000a900473ffffffffffffffffffffffffffffffffffffffff169050338260010160006101000a81548173ffffffffffffffffffffffffffffffffffffffff021916908373ffffffffffffffffffffffffffffffffffffffff16021790555060008260060160016101000a81548160ff02191690836001811115610a9357610a92612590565b5b02179055506000826007018190555060026000858152602001908152602001600020339080600181540180825580915050600190039060005260206000200160009091909190916101000a81548173ffffffffffffffffffffffffffffffffffffffff021916908373ffffffffffffffffffffffffffffffffffffffff16021790555060008173ffffffffffffffffffffffffffffffffffffffff1634604051610b3c90613017565b60006040518083038185875af1925050503d8060008114610b79576040519150601f19603f3d011682016040523d82523d6000602084013e610b7e565b606091505b5050905080610bc2576040517f08c379a0000000000000000000000000000000000000000000000000000000008152600401610bb990613078565b60405180910390fd5b7f14bcca455c796ec19a809d200b1af96d6a3329d8e78d845b22bc0a6c48abad7d858333604051610bf593929190613098565b60405180910390a15050505050565b60606000610c1260006122ad565b90506000805b82811015610ca5578473ffffffffffffffffffffffffffffffffffffffff166001600083815260200190815260200160002060010160009054906101000a900473ffffffffffffffffffffffffffffffffffffffff1673ffffffffffffffffffffffffffffffffffffffff1603610c98578180610c94906130fe565b9250505b8080600101915050610c18565b5060008167ffffffffffffffff811115610cc257610cc16127e4565b5b604051908082528060200260200182016040528015610cfb57816020015b610ce8612311565b815260200190600190039081610ce05790505b5090506000805b8481101561106c578673ffffffffffffffffffffffffffffffffffffffff166001600083815260200190815260200160002060010160009054906101000a900473ffffffffffffffffffffffffffffffffffffffff1673ffffffffffffffffffffffffffffffffffffffff160361105f576001600082815260200190815260200160002060405180610120016040529081600082015481526020016001820160009054906101000a900473ffffffffffffffffffffffffffffffffffffffff1673ffffffffffffffffffffffffffffffffffffffff1673ffffffffffffffffffffffffffffffffffffffff16815260200160028201548152602001600382018054610e0c90612d56565b80601f0160208091040260200160405190810160405280929190818152602001828054610e3890612d56565b8015610e855780601f10610e5a57610100808354040283529160200191610e85565b820191906000526020600020905b815481529060010190602001808311610e6857829003601f168201915b50505050508152602001600482018054610e9e90612d56565b80601f0160208091040260200160405190810160405280929190818152602001828054610eca90612d56565b8015610f175780601f10610eec57610100808354040283529160200191610f17565b820191906000526020600020905b815481529060010190602001808311610efa57829003601f168201915b50505050508152602001600582018054610f3090612d56565b80601f0160208091040260200160405190810160405280929190818152602001828054610f5c90612d56565b8015610fa95780601f10610f7e57610100808354040283529160200191610fa9565b820191906000526020600020905b815481529060010190602001808311610f8c57829003601f168201915b505050505081526020016006820160009054906101000a900460ff166001811115610fd757610fd6612590565b5b6001811115610fe957610fe8612590565b5b81526020016006820160019054906101000a900460ff16600181111561101257611011612590565b5b600181111561102457611023612590565b5b815260200160078201548152505083838151811061104557611044613146565b5b6020026020010181905250818061105b906130fe565b9250505b8080600101915050610d02565b5081945050505050919050565b6060600061108760006122ad565b905060008167ffffffffffffffff8111156110a5576110a46127e4565b5b6040519080825280602002602001820160405280156110de57816020015b6110cb612311565b8152602001906001900390816110c35790505b50905060005b828110156113d6576001600082815260200190815260200160002060405180610120016040529081600082015481526020016001820160009054906101000a900473ffffffffffffffffffffffffffffffffffffffff1673ffffffffffffffffffffffffffffffffffffffff1673ffffffffffffffffffffffffffffffffffffffff1681526020016002820154815260200160038201805461118590612d56565b80601f01602080910402602001604051908101604052809291908181526020018280546111b190612d56565b80156111fe5780601f106111d3576101008083540402835291602001916111fe565b820191906000526020600020905b8154815290600101906020018083116111e157829003601f168201915b5050505050815260200160048201805461121790612d56565b80601f016020809104026020016040519081016040528092919081815260200182805461124390612d56565b80156112905780601f1061126557610100808354040283529160200191611290565b820191906000526020600020905b81548152906001019060200180831161127357829003601f168201915b505050505081526020016005820180546112a990612d56565b80601f01602080910402602001604051908101604052809291908181526020018280546112d590612d56565b80156113225780601f106112f757610100808354040283529160200191611322565b820191906000526020600020905b81548152906001019060200180831161130557829003601f168201915b505050505081526020016006820160009054906101000a900460ff1660018111156113505761134f612590565b5b600181111561136257611361612590565b5b81526020016006820160019054906101000a900460ff16600181111561138b5761138a612590565b5b600181111561139d5761139c612590565b5b81526020016007820154815250508282815181106113be576113bd613146565b5b602002602001018190525080806001019150506110e4565b50809250505090565b606060006113ed60006122ad565b90506000805b828110156114655760018081111561140e5761140d612590565b5b6001600083815260200190815260200160002060060160009054906101000a900460ff16600181111561144457611443612590565b5b03611458578180611454906130fe565b9250505b80806001019150506113f3565b5060008167ffffffffffffffff811115611482576114816127e4565b5b6040519080825280602002602001820160405280156114bb57816020015b6114a8612311565b8152602001906001900390816114a05790505b5090506000805b84811015611811576001808111156114dd576114dc612590565b5b6001600083815260200190815260200160002060060160009054906101000a900460ff16600181111561151357611512612590565b5b03611804576001600082815260200190815260200160002060405180610120016040529081600082015481526020016001820160009054906101000a900473ffffffffffffffffffffffffffffffffffffffff1673ffffffffffffffffffffffffffffffffffffffff1673ffffffffffffffffffffffffffffffffffffffff168152602001600282015481526020016003820180546115b190612d56565b80601f01602080910402602001604051908101604052809291908181526020018280546115dd90612d56565b801561162a5780601f106115ff5761010080835404028352916020019161162a565b820191906000526020600020905b81548152906001019060200180831161160d57829003601f168201915b5050505050815260200160048201805461164390612d56565b80601f016020809104026020016040519081016040528092919081815260200182805461166f90612d56565b80156116bc5780601f10611691576101008083540402835291602001916116bc565b820191906000526020600020905b81548152906001019060200180831161169f57829003601f168201915b505050505081526020016005820180546116d590612d56565b80601f016020809104026020016040519081016040528092919081815260200182805461170190612d56565b801561174e5780601f106117235761010080835404028352916020019161174e565b820191906000526020600020905b81548152906001019060200180831161173157829003601f168201915b505050505081526020016006820160009054906101000a900460ff16600181111561177c5761177b612590565b5b600181111561178e5761178d612590565b5b81526020016006820160019054906101000a900460ff1660018111156117b7576117b6612590565b5b60018111156117c9576117c8612590565b5b81526020016007820154815250508383815181106117ea576117e9613146565b5b60200260200101819052508180611800906130fe565b9250505b80806001019150506114c2565b508194505050505090565b60038260405161182c91906131b1565b908152602001604051809103902060009054906101000a900460ff1615611888576040517f08c379a000000000000000000000000000000000000000000000000000000000815260040161187f9061323a565b60405180910390fd5b600081116118cb576040517f08c379a00000000000000000000000000000000000000000000000000000000081526004016118c2906132a6565b60405180910390fd5b60006118d760006122ad565b90506118e360006122bb565b6040518061012001604052808281526020013373ffffffffffffffffffffffffffffffffffffffff1681526020018781526020018681526020018581526020018481526020016000600181111561193d5761193c612590565b5b815260200160018081111561195557611954612590565b5b815260200183815250600160008381526020019081526020016000206000820151816000015560208201518160010160006101000a81548173ffffffffffffffffffffffffffffffffffffffff021916908373ffffffffffffffffffffffffffffffffffffffff1602179055506040820151816002015560608201518160030190816119e19190613472565b5060808201518160040190816119f79190613472565b5060a0820151816005019081611a0d9190613472565b5060c08201518160060160006101000a81548160ff02191690836001811115611a3957611a38612590565b5b021790555060e08201518160060160016101000a81548160ff02191690836001811115611a6957611a68612590565b5b0217905550610100820151816007015590505060026000828152602001908152602001600020339080600181540180825580915050600190039060005260206000200160009091909190916101000a81548173ffffffffffffffffffffffffffffffffffffffff021916908373ffffffffffffffffffffffffffffffffffffffff1602179055506001600384604051611b0291906131b1565b908152602001604051809103902060006101000a81548160ff0219169083151502179055507f47012fa767a1aa6ab258bc947ee6b07dbcdadf14e087069826858c15e326d4008133604051611b58929190612cfe565b60405180910390a1505050505050565b606081600073ffffffffffffffffffffffffffffffffffffffff166001600083815260200190815260200160002060010160009054906101000a900473ffffffffffffffffffffffffffffffffffffffff1673ffffffffffffffffffffffffffffffffffffffff1603611c10576040517f08c379a0000000000000000000000000000000000000000000000000000000008152600401611c0790612c23565b60405180910390fd5b60026000848152602001908152602001600020805480602002602001604051908101604052809291908181526020018280548015611ca357602002820191906000526020600020905b8160009054906101000a900473ffffffffffffffffffffffffffffffffffffffff1673ffffffffffffffffffffffffffffffffffffffff1681526020019060010190808311611c59575b5050505050915050919050565b80600073ffffffffffffffffffffffffffffffffffffffff166001600083815260200190815260200160002060010160009054906101000a900473ffffffffffffffffffffffffffffffffffffffff1673ffffffffffffffffffffffffffffffffffffffff1603611d56576040517f08c379a0000000000000000000000000000000000000000000000000000000008152600401611d4d90612c23565b60405180910390fd5b600180811115611d6957611d68612590565b5b6001600084815260200190815260200160002060060160019054906101000a900460ff166001811115611d9f57611d9e612590565b5b1480611df15750600180811115611db957611db8612590565b5b6001600084815260200190815260200160002060060160009054906101000a900460ff166001811115611def57611dee612590565b5b145b611e30576040517f08c379a0000000000000000000000000000000000000000000000000000000008152600401611e2790612cb5565b60405180910390fd5b60006001600084815260200190815260200160002060060160006101000a81548160ff02191690836001811115611e6a57611e69612590565b5b02179055507f9ba6395e75fcc1b021b7237eb51d055ec9f8797bfeb15a99c61db5f599bf8802826000604051611ea1929190612cd5565b60405180910390a17ffb9625d8f3292b4f2c77920987a97b46155b934995873c85e64429df037b005b8233604051611eda929190612cfe565b60405180910390a15050565b60008060006060806060600080600089600073ffffffffffffffffffffffffffffffffffffffff166001600083815260200190815260200160002060010160009054906101000a900473ffffffffffffffffffffffffffffffffffffffff1673ffffffffffffffffffffffffffffffffffffffff1603611f9b576040517f08c379a0000000000000000000000000000000000000000000000000000000008152600401611f9290612c23565b60405180910390fd5b6000600160008d815260200190815260200160002060405180610120016040529081600082015481526020016001820160009054906101000a900473ffffffffffffffffffffffffffffffffffffffff1673ffffffffffffffffffffffffffffffffffffffff1673ffffffffffffffffffffffffffffffffffffffff1681526020016002820154815260200160038201805461203690612d56565b80601f016020809104026020016040519081016040528092919081815260200182805461206290612d56565b80156120af5780601f10612084576101008083540402835291602001916120af565b820191906000526020600020905b81548152906001019060200180831161209257829003601f168201915b505050505081526020016004820180546120c890612d56565b80601f01602080910402602001604051908101604052809291908181526020018280546120f490612d56565b80156121415780601f1061211657610100808354040283529160200191612141565b820191906000526020600020905b81548152906001019060200180831161212457829003601f168201915b5050505050815260200160058201805461215a90612d56565b80601f016020809104026020016040519081016040528092919081815260200182805461218690612d56565b80156121d35780601f106121a8576101008083540402835291602001916121d3565b820191906000526020600020905b8154815290600101906020018083116121b657829003601f168201915b505050505081526020016006820160009054906101000a900460ff16600181111561220157612200612590565b5b600181111561221357612212612590565b5b81526020016006820160019054906101000a900460ff16600181111561223c5761223b612590565b5b600181111561224e5761224d612590565b5b81526020016007820154815250509050806000015181602001518260400151836060015184608001518560a001518660c001518760e001518861010001519a509a509a509a509a509a509a509a509a5050509193959799909294969850565b600081600001549050919050565b6001816000016000828254019250508190555050565b5080546122dd90612d56565b6000825580601f106122ef575061230e565b601f01602090049060005260206000209081019061230d9190612397565b5b50565b60405180610120016040528060008152602001600073ffffffffffffffffffffffffffffffffffffffff168152602001600081526020016060815260200160608152602001606081526020016000600181111561237157612370612590565b5b81526020016000600181111561238a57612389612590565b5b8152602001600081525090565b5b808211156123b0576000816000905550600101612398565b5090565b6000604051905090565b600080fd5b600080fd5b6000819050919050565b6123db816123c8565b81146123e657600080fd5b50565b6000813590506123f8816123d2565b92915050565b600060208284031215612414576124136123be565b5b6000612422848285016123e9565b91505092915050565b600073ffffffffffffffffffffffffffffffffffffffff82169050919050565b60006124568261242b565b9050919050565b6124668161244b565b811461247157600080fd5b50565b6000813590506124838161245d565b92915050565b60006020828403121561249f5761249e6123be565b5b60006124ad84828501612474565b91505092915050565b600081519050919050565b600082825260208201905092915050565b6000819050602082019050919050565b6124eb816123c8565b82525050565b6124fa8161244b565b82525050565b600081519050919050565b600082825260208201905092915050565b60005b8381101561253a57808201518184015260208101905061251f565b60008484015250505050565b6000601f19601f8301169050919050565b600061256282612500565b61256c818561250b565b935061257c81856020860161251c565b61258581612546565b840191505092915050565b7f4e487b7100000000000000000000000000000000000000000000000000000000600052602160045260246000fd5b600281106125d0576125cf612590565b5b50565b60008190506125e1826125bf565b919050565b60006125f1826125d3565b9050919050565b612601816125e6565b82525050565b6002811061261857612617612590565b5b50565b600081905061262982612607565b919050565b60006126398261261b565b9050919050565b6126498161262e565b82525050565b60006101208301600083015161266860008601826124e2565b50602083015161267b60208601826124f1565b50604083015161268e60408601826124e2565b50606083015184820360608601526126a68282612557565b915050608083015184820360808601526126c08282612557565b91505060a083015184820360a08601526126da8282612557565b91505060c08301516126ef60c08601826125f8565b5060e083015161270260e0860182612640565b506101008301516127176101008601826124e2565b508091505092915050565b600061272e838361264f565b905092915050565b6000602082019050919050565b600061274e826124b6565b61275881856124c1565b93508360208202850161276a856124d2565b8060005b858110156127a657848403895281516127878582612722565b945061279283612736565b925060208a0199505060018101905061276e565b50829750879550505050505092915050565b600060208201905081810360008301526127d28184612743565b905092915050565b600080fd5b600080fd5b7f4e487b7100000000000000000000000000000000000000000000000000000000600052604160045260246000fd5b61281c82612546565b810181811067ffffffffffffffff8211171561283b5761283a6127e4565b5b80604052505050565b600061284e6123b4565b905061285a8282612813565b919050565b600067ffffffffffffffff82111561287a576128796127e4565b5b61288382612546565b9050602081019050919050565b82818337600083830152505050565b60006128b26128ad8461285f565b612844565b9050828152602081018484840111156128ce576128cd6127df565b5b6128d9848285612890565b509392505050565b600082601f8301126128f6576128f56127da565b5b813561290684826020860161289f565b91505092915050565b600080600080600060a0868803121561292b5761292a6123be565b5b6000612939888289016123e9565b955050602086013567ffffffffffffffff81111561295a576129596123c3565b5b612966888289016128e1565b945050604086013567ffffffffffffffff811115612987576129866123c3565b5b612993888289016128e1565b935050606086013567ffffffffffffffff8111156129b4576129b36123c3565b5b6129c0888289016128e1565b92505060806129d1888289016123e9565b9150509295509295909350565b600081519050919050565b600082825260208201905092915050565b6000819050602082019050919050565b6000612a1683836124f1565b60208301905092915050565b6000602082019050919050565b6000612a3a826129de565b612a4481856129e9565b9350612a4f836129fa565b8060005b83811015612a80578151612a678882612a0a565b9750612a7283612a22565b925050600181019050612a53565b5085935050505092915050565b60006020820190508181036000830152612aa78184612a2f565b905092915050565b612ab8816123c8565b82525050565b612ac78161244b565b82525050565b600082825260208201905092915050565b6000612ae982612500565b612af38185612acd565b9350612b0381856020860161251c565b612b0c81612546565b840191505092915050565b612b20816125e6565b82525050565b612b2f8161262e565b82525050565b600061012082019050612b4b600083018c612aaf565b612b58602083018b612abe565b612b65604083018a612aaf565b8181036060830152612b778189612ade565b90508181036080830152612b8b8188612ade565b905081810360a0830152612b9f8187612ade565b9050612bae60c0830186612b17565b612bbb60e0830185612b26565b612bc9610100830184612aaf565b9a9950505050505050505050565b7f4c616e6420646f6573206e6f7420657869737400000000000000000000000000600082015250565b6000612c0d601383612acd565b9150612c1882612bd7565b602082019050919050565b60006020820190508181036000830152612c3c81612c00565b9050919050565b7f4f6e6c7920556e736f6c64206f72204469737075746564206c616e642063616e60008201527f2062652076657269666965640000000000000000000000000000000000000000602082015250565b6000612c9f602c83612acd565b9150612caa82612c43565b604082019050919050565b60006020820190508181036000830152612cce81612c92565b9050919050565b6000604082019050612cea6000830185612aaf565b612cf76020830184612b17565b9392505050565b6000604082019050612d136000830185612aaf565b612d206020830184612abe565b9392505050565b7f4e487b7100000000000000000000000000000000000000000000000000000000600052602260045260246000fd5b60006002820490506001821680612d6e57607f821691505b602082108103612d8157612d80612d27565b5b50919050565b600081905092915050565b60008190508160005260206000209050919050565b60008154612db481612d56565b612dbe8186612d87565b94506001821660008114612dd95760018114612dee57612e21565b60ff1983168652811515820286019350612e21565b612df785612d92565b60005b83811015612e1957815481890152600182019150602081019050612dfa565b838801955050505b50505092915050565b6000612e368284612da7565b915081905092915050565b7f4c616e64206d7573742062652076657269666965640000000000000000000000600082015250565b6000612e77601583612acd565b9150612e8282612e41565b602082019050919050565b60006020820190508181036000830152612ea681612e6a565b9050919050565b7f4c616e64206973206e6f7420666f722073616c65000000000000000000000000600082015250565b6000612ee3601483612acd565b9150612eee82612ead565b602082019050919050565b60006020820190508181036000830152612f1281612ed6565b9050919050565b7f596f7520616c7265616479206f776e2074686973206c616e6400000000000000600082015250565b6000612f4f601983612acd565b9150612f5a82612f19565b602082019050919050565b60006020820190508181036000830152612f7e81612f42565b9050919050565b7f496e636f72726563742045544820616d6f756e742073656e7400000000000000600082015250565b6000612fbb601983612acd565b9150612fc682612f85565b602082019050919050565b60006020820190508181036000830152612fea81612fae565b9050919050565b50565b6000613001600083612d87565b915061300c82612ff1565b600082019050919050565b600061302282612ff4565b9150819050919050565b7f455448205472616e73666572206661696c656400000000000000000000000000600082015250565b6000613062601383612acd565b915061306d8261302c565b602082019050919050565b6000602082019050818103600083015261309181613055565b9050919050565b60006060820190506130ad6000830186612aaf565b6130ba6020830185612abe565b6130c76040830184612abe565b949350505050565b7f4e487b7100000000000000000000000000000000000000000000000000000000600052601160045260246000fd5b6000613109826123c8565b91507fffffffffffffffffffffffffffffffffffffffffffffffffffffffffffffffff820361313b5761313a6130cf565b5b600182019050919050565b7f4e487b7100000000000000000000000000000000000000000000000000000000600052603260045260246000fd5b600081905092915050565b600061318b82612500565b6131958185613175565b93506131a581856020860161251c565b80840191505092915050565b60006131bd8284613180565b915081905092915050565b7f4c616e642077697468207468697320646f63756d656e7420616c72656164792060008201527f7265676973746572656400000000000000000000000000000000000000000000602082015250565b6000613224602a83612acd565b915061322f826131c8565b604082019050919050565b6000602082019050818103600083015261325381613217565b9050919050565b7f5072696365206d7573742062652067726561746572207468616e203000000000600082015250565b6000613290601c83612acd565b915061329b8261325a565b602082019050919050565b600060208201905081810360008301526132bf81613283565b9050919050565b60008190508160005260206000209050919050565b60006020601f8301049050919050565b600082821b905092915050565b6000600883026133287fffffffffffffffffffffffffffffffffffffffffffffffffffffffffffffffff826132eb565b61333286836132eb565b95508019841693508086168417925050509392505050565b6000819050919050565b600061336f61336a613365846123c8565b61334a565b6123c8565b9050919050565b6000819050919050565b61338983613354565b61339d61339582613376565b8484546132f8565b825550505050565b600090565b6133b26133a5565b6133bd818484613380565b505050565b5b818110156133e1576133d66000826133aa565b6001810190506133c3565b5050565b601f821115613426576133f7816132c6565b613400846132db565b8101602085101561340f578190505b61342361341b856132db565b8301826133c2565b50505b505050565b600082821c905092915050565b60006134496000198460080261342b565b1980831691505092915050565b60006134628383613438565b9150826002028217905092915050565b61347b82612500565b67ffffffffffffffff811115613494576134936127e4565b5b61349e8254612d56565b6134a98282856133e5565b600060209050601f8311600181146134dc57600084156134ca578287015190505b6134d48582613456565b86555061353c565b601f1984166134ea866132c6565b60005b82811015613512578489015182556001820191506020850194506020810190506134ed565b8683101561352f578489015161352b601f891682613438565b8355505b6001600288020188555050505b50505050505056fea2646970667358221220d4f6456e1b85da91395b29e12058d47418f281326c6f6cfbaeb9a958a47f7af964736f6c634300081c0033",
  "linkReferences": {},
  "deployedLinkReferences": {}
}